:020000020000FC
:100000004DC013C018951895189518951FC01895D0
:100010001895189518951895189518951895189578
:10002000189518951895189518950F930FB70F9365
:100030001F938F939F937F93829B03C051602CBC2F
:1000400025C05E7F0CB58AD046D020C00F930FB775
:100050000F931F938F939F937F936DD028BA22BAEB
:100060004A954370D0E0C0E6C40F088108BBF6E0B3
:10007000E42F049102BB3395383008F407C03327CE
:1000800050FD04C0909A23D0909800C07F919F911A
:100090008F911F910F910FBF0F9118952FED2DBFCD
:1000A0002FEF27BB23E721BB22E023BF24E02EBD97
:1000B00022E029BF29E129B920E42BBF21E025BF97
:1000C000332722245527442778940000FECF11E0DF
:1000D0001A95F1F708950ED022D001D00895DD27AA
:1000E000C0E6F6E00885E0E2E00F04910993C4362B
:1000F000C8F308958827992778E023E3820F83FFC8
:10010000835087FF805323E3920F93FF935097FF11
:100110009053001F881F991F7A9579F70895DD275E
:10012000C8E6182F05D0182F02D0192F01C012953C
:100130001F7019930895889483990894661F6F3FE0
:1001400010F05D7F0895603009F0089551FD089525
:1001500004E011271027510F52600895802F05E009
:1001600052FF02E078E0982F881B881F991F10F437
:0A017000800F7A95D1F7082F08954B
:040600004020100284
:0A062000EB88B3BAD87A7BA8FBFA86
:00000001FF
